:100000000C9434000C9451000C9451000C94510049
:100010000C9451000C9451000C9451000C9451001C
:100020000C9451000C9451000C9451000C9453000A
:100030000C9451000C9451000C9451000C945100FC
:100040000C9451000C9451000C9451000C945100EC
:100050000C9451000C9451000C9451000C945100DC
:100060000C9451000C94510011241FBECFEFD8E026
:10007000DEBFCDBF11E0A0E0B1E0E4ECF1E002C0F2
:1000800005900D92A830B107D9F721E0A8E0B1E0C2
:1000900001C01D92A431B207E1F70E9490000C94B8
:1000A000E0000C9400001F921FB61F9211248F9342
:1000B0009F93AF93BF938091100190911101A091F4
:1000C0001201B09113010196A11DB11D8093100181
:1000D00090931101A0931201B0931301BF91AF91BE
:1000E0009F918F911F901FBE1F90189510928000B6
:1000F000E1E8F0E01082109285001092840089EF10
:1001000090E0909389008093880088E080838081CC
:1001100082608083EFE68081826080837894089596
:1001200087E084B90E94760020E0F8948091100165
:1001300090911101A0911201B0911301789433E0D4
:10014000B695A795979587953A95D1F780930C0129
:1001500090930D01A0930E01B0930F0140910801FF
:100160005091090160910A0170910B01841B950B5C
:10017000A60BB70B40910401509105016091060157
:100180007091070184179507A607B70770F2E22F51
:10019000E370F0E0E050FF4F808185B980910C0161
:1001A00090910D01A0910E01B0910F018093080173
:1001B00090930901A0930A01B0930B012F5FB5CF73
:0401C000F894FFCFE1
:0801C40001020406F401000031
:00000001FF
