:100000000C9434000C9451000C9451000C94510049
:100010000C9451000C9451000C9451000C9451001C
:100020000C9451000C9451000C9451000C9451000C
:100030000C9451000C9451000C9451000C945100FC
:100040000C9451000C9451000C9451000C945100EC
:100050000C9451000C9451000C9451000C945100DC
:100060000C9451000C94510011241FBECFEFD8E026
:10007000DEBFCDBF11E0A0E0B1E0EAEDF1E002C0EB
:1000800005900D92A230B107D9F721E0A2E0B1E0CE
:1000900001C01D92A530B207E1F70E94DB000C946D
:1000A000EB000C94000025B190910001892F809500
:1000B0008223209104019223892B85B90895809190
:1000C000000184B925982D9A089593B1292F2072A3
:1000D000002495FF0394902D9093020180910301D9
:1000E000282B81E0211180E09093030108958091F5
:1000F00004018B7F8860809304010E9453002FEFDE
:1001000087EA91E6215080409040E1F700C000006E
:1001100080910401877F8061809304010C945300D7
:10012000809104018861809304010E9453002FEFA5
:1001300087EA91E6215080409040E1F700C000003E
:1001400080910401877E8460809304010C945300A5
:100150002FEF87EA91E6215080409040E1F700C000
:100160000000809104018D7F8160809304010C94D4
:1001700053002FEF87EA91E6215080409040E1F74D
:1001800000C00000809104018E7F82608093040192
:100190000C9453000E9477000E94A8002FEF83E286
:1001A00094EF215080409040E1F700C000000E9491
:1001B000B9000C9490000E945F0080910401866059
:1001C000809304010E9453000E9465008115E1F3B1
:0A01D0000E94CA00F9CFF894FFCF97
:0201DA001F0004
:00000001FF
