:100000000C9434000C9451000C9451000C94510049
:100010000C9451000C9451000C9451000C9451001C
:100020000C9451000C9451000C9451000C9451000C
:100030000C9451000C9451000C9451000C945100FC
:100040000C9451000C9451000C9451000C945100EC
:100050000C9451000C9451000C9451000C945100DC
:100060000C9451000C94510011241FBECFEFD8E026
:10007000DEBFCDBF11E0A0E0B1E0E2EEF1E002C0F2
:1000800005900D92A230B107D9F721E0A2E0B1E0CE
:1000900001C01D92A730B207E1F70E94DF000C9467
:1000A000EF000C94000025B190910001892F8095FC
:1000B00082238093050120910601922390930401ED
:1000C000892B85B908958091000184B925982D9ACE
:1000D000089593B1292F2072002495FF0394902D49
:1000E0009093020180910301282B81E0211180E08F
:1000F000909303010895809106018B7F886080931F
:1001000006010E9453002FEF87EA91E621508040BC
:100110009040E1F700C0000080910601877F806178
:10012000809306010C9453008091060188618093AE
:1001300006010E9453002FEF87EA91E6215080408C
:100140009040E1F700C0000080910601877E846046
:10015000809306010C9453002FEF87EA91E621501B
:1001600080409040E1F700C00000809106018D7F43
:100170008160809306010C9453002FEF87EA91E68B
:10018000215080409040E1F700C0000080910601BE
:100190008E7F8260809306010C9453000E947B0046
:1001A0000E94AC002FEF83E294EF215080409040FA
:1001B000E1F700C000000E94BD000C9494000E9472
:1001C0006300809106018660809306010E945300BF
:1001D0000E9469008115E1F30E94CE00F9CFF894E6
:0201E000FFCF4F
:0201E2001F00FC
:00000001FF
