:100000000C9434000C943E000C943E000C943E0082
:100010000C943E000C943E000C943E000C943E0068
:100020000C943E000C943E000C943E000C943E0058
:100030000C943E000C943E000C943E000C943E0048
:100040000C943E000C943E000C943E000C943E0038
:100050000C943E000C943E000C943E000C943E0028
:100060000C943E000C943E0011241FBECFEFD8E04C
:10007000DEBFCDBF0E9488000C949D000C94000050
:100080002A982B9A2FEF87EA91E6215080409040E2
:10009000E1F700C000002B982C9A089585B1886183
:1000A00085B92FEF87EA91E6215080409040E1F733
:1000B00000C0000085B1877E85B92A9A08952FEF88
:1000C00087EA91E6215080409040E1F700C00000AF
:1000D0002998289A08952FEF87EA91E621508040C9
:1000E0009040E1F700C000002898299A08950E94E6
:1000F00040000E945F002FEF83E294EF2150804088
:100100009040E1F700C000000E946B000C944E008C
:100110008FE184B925982D9A85B1866085B91D9B9C
:1001200005C01D99FECF0E947700FBCF8FE39CE9AD
:0E0130000197F1F700C00000F2CFF894FFCF66
:00000001FF
