:100000000C9440010C945D010C945D010C945D0115
:100010000C945D010C945D010C945D010C945D01E8
:100020000C945D010C945D010C945D010C945D01D8
:100030000C945D010C945D010C945D010C945D01C8
:100040000C945D010C945D010C945D010C945D01B8
:100050000C945D010C945D010C945D010C945D01A8
:100060000C945D010C945D0148656465726C696770
:1000700065204861727279732042696C61722C3517
:100080003030302C6F6E655F72616E646F6D2C3333
:100090002C4BC3B6702062696C20686F7320486176
:1000A0007272792C7363726F6C6C2C456E20676F63
:1000B000642062696C616666C3A472202866C3B658
:1000C0007220486172727921292C66697865642CE6
:1000D00048656465726C69676520486172727973FE
:1000E0002042696C61722C626C696E6B0A466172A7
:1000F0006D6F7220416E6B61732050616A65722072
:1001000041422C333030302C6F6E655F72616E640B
:100110006F6D2C322C4BC3B6702070616A20686FF3
:1001200073204661726D6F7220416E6B612C736338
:10013000726F6C6C2C536B796E646120696E6E61AA
:100140006E204DC3A57274656E20C3A474697420BB
:10015000616C6C612070616A65722C666978656497
:100160000A537661727465205065747465727320E9
:10017000537661727462796767656E2C3135303001
:100180002C6F6E655F6576656E5F6F64645F6D6929
:100190006E2C322C4CC3A57420506574746572208B
:1001A000627967676120C3A574206469672C7363F3
:1001B000726F6C6C2C427967676120737661727420
:1001C0003F2052696E67205065747465722C7363AA
:1001D000726F6C6C0A4CC3A56E6762656E732044C7
:1001E0006574656B746976627972C3A52C3430309E
:1001F000302C6F6E655F72616E646F6D2C322C4DAA
:1002000079737465726965723F2052696E67204C1C
:10021000C3A56E6762656E2C66697865642C4CC3F5
:10022000A56E6762656E2066697861722062696694
:1002300066656E2C66697865640A53656C66207025
:10024000726F6D6F74696F6E2C313030302C6F6E41
:10025000655F72616E646F6D2C312C53796E6173C2
:100260002068C3A4723F20494F543A732052656BF3
:100270006C616D627972C3A52C66697865640A0049
:1002800011241FBECFEFD8E0DEBFCDBF12E0A0E04B
:10029000B1E0E4EDF3E102C005900D92AA30B107A0
:1002A000D9F726E0AAE0B2E001C01D92AC34B20753
:1002B000E1F70E943C050C94E8090C940000909131
:1002C000C00095FFFCCF8093C60080E090E00895C9
:1002D0001092C50087E68093C40088E08093C10037
:1002E00086E08093C20008950E94680180E091E05A
:1002F000809348069093490608959BB19F7082951C
:10030000807F892B8BB95998599A59988FEA94E034
:100310000197F1F700C000000895CF93DF930F928B
:10032000CDB7DEB78983611561F0589A89818295CE
:100330008F700E947D0189810F90DF91CF910C9485
:100340007D015898F3CF60E00C948D0161E00C942E
:100350008D018AB1836F8AB98BB18C7F8BB92FEFF6
:1003600080E792E0215080409040E1F700C000001B
:1003700083E00E947D018FE090E40197F1F700C0D7
:10038000000083E00E947D018FE090E40197F1F787
:1003900000C0000083E00E947D018FE090E401979F
:1003A000F1F700C0000082E00E947D018FE090E440
:1003B0000197F1F700C0000088E20E94A3018FE0DE
:1003C00090E40197F1F700C0000084E080934506B7
:1003D0008CE00C94A30180914506982F9460909333
:1003E00045068C600C94A301809145068B7F809319
:1003F000450688600C94A30181E00E94A3018FE36D
:100400009FE10197F1F700C00000089582E00E948B
:10041000A3018FE39FE10197F1F700C00000089569
:1004200080914506982F91609093450689600C94C1
:10043000A301809145068E7F8093450688600C94C9
:10044000A30180914506982F9260909345068A609B
:100450000C94A301809145068D7F809345068860AA
:100460000C94A30188E10C94A3018CE10C94A301EA
:1004700080914506982F92609093450686600C9473
:10048000A301809145068D7F8093450684600C947E
:10049000A30180914506982F916090934506856051
:1004A0000C94A301809145068E7F8093450684605D
:1004B0000C94A3010F931F93CF93DF93880F880FA2
:1004C000880F88738064EB010E94A3018E01085F8E
:1004D0001F4F89910E94A601C017D107D1F780E86C
:1004E000DF91CF911F910F910C94A301E62FF0E0C3
:1004F000EE5EFE4F9081890F80680C94A301FC0191
:10050000DC012C91211102C010820895233C61F47A
:10051000DC0111963C91343AA1F040F43538A1F059
:100520003639C1F0343899F0019609C0353A29F0CE
:10053000363BD1F7029626EF02C0029625EE2193B4
:10054000DFCF029624EEFBCF029625ECF8CF029681
:1005500024ECF5CF029626EDF2CFCF93DF9300D0B7
:1005600000D0CDB7DEB789839A830E947F022981AC
:100570002B833A813C83EB81FC818081811107C010
:100580000F900F900F900F90DF91CF910895EB8116
:10059000FC813196EB83FC830E94A601ECCFEF92A5
:1005A000FF920F931F93CF93DF93CDB7DEB78E01EA
:1005B000075F1F4FF801E190F1908F01C7010E9482
:1005C0007F029801A70161E170E084E396E00E9458
:1005D000870684E396E00E94AD02DF91CF911F91E0
:1005E0000F91FF90EF900895CF93DF93EC010E945D
:1005F000140488E391E00E945B06FE01EC5DFB4F72
:10060000DE01AA5DBB4F8D919D91019744ED489FFE
:100610009001499F300D1124C20FD31FC083D18395
:10062000DF91CF9108954F925F926F927F928F9258
:100630009F92AF92BF92CF92DF92EF92FF920F9371
:100640001F93CF93DF933C012CED621A2BEF720ABC
:10065000F301A080B1802C01FAED4F1AFBEF5F0A85
:10066000F201208131818C01FC0180E090E0EC01FD
:10067000821793073CF1F50182A993A9C81BD90BF6
:100680000E94DA05BE010E9464056C01BF92AF9220
:10069000DF928F9380E591E09F938F930E944506B0
:1006A0000F900F900F900F900F900F90812C912C26
:1006B0007401F20180819181881699065CF0C0E096
:1006C000D0E027C042A953A9C40FD51F0196EC5210
:1006D000FF4FCECFE801A016B10609F44DC08AA99C
:1006E0009BA9E80EF91ECE14DF04B4F5DF92CF9279
:1006F000FF92EF9281E791E09F938F930E944506CE
:10070000F3010083D1830F900F900F900F900F9003
:100710000F90DF93CF9381EB91E09F938F930E9493
:1007200045060F900F900F900F908CA99DA90197EF
:1007300049F5CE01C896DF91CF911F910F91FF909F
:10074000EF90DF90CF90BF90AF909F908F907F9071
:100750006F905F904F900895DF92CF92FF92EF924B
:1007600086E991E09F938F930E9445060F900F902A
:100770000F900F900F900F90FFEF8F1A9F0A0C525F
:100780001F4F97CF0E94DA056EA97FA90E946405CA
:1007900044E3489F9001499F300D1124C901C89638
:1007A0008C0F9D1FC8CFCF93DF93EC0162EC71E0FB
:1007B0000E9406060097A1F068EC71E0CE010E944D
:1007C0000606892B81F06FEC71E0CE010E940606CF
:1007D00021E030E0892B09F020E0C901880F991F42
:1007E000DF91CF91089581E090E0FACFCF93DF932E
:1007F00000D0CDB7DEB789839A8365ED71E00E94A2
:100800000606009761F060EE71E089819A810E948E
:10081000060621E0892B09F020E0822F90E00F905E
:100820000F90DF91CF9108956F927F928F929F9258
:10083000AF92BF92CF92DF92EF92FF920F931F93EE
:10084000CF93DF93CDB7DEB7CE5DD1090FB6F89465
:10085000DEBF0FBECDBF3C017E0127EDE20EF11CD5
:10086000F701108211828E010B521F4FF801108286
:100870001182A7016EE471E088E690E00E941606FE
:100880005301C12CD12CC552DF4FE882CB5DD04043
:10089000C452DF4FF882CC5DD040C752DF4F08838F
:1008A000C95DD040C652DF4F1883CA5DD040045D99
:1008B00011090097D9F4F301EA5DFB4FC082D182A0
:1008C000C252DF4F0FB6F894DEBF0FBECDBFDF912F
:1008D000CF911F910F91FF90EF90DF90CF90BF903D
:1008E000AF909F908F907F906F900895C752DF4F89
:1008F0004881C95DD040C652DF4F5881CA5DD040A3
:1009000061EF71E00E941606BC01C8010E940F064B
:100910001F930F9383EF91E09F938F930E9445065F
:10092000C752DF4F4881C95DD040C652DF4F588162
:10093000CA5DD04061EF71E080E090E00E94160651
:100940000E94E8058BAB9CABC752DF4F4881C95D65
:10095000D040C652DF4F5881CA5DD04061EF71E090
:1009600080E090E00E9416060E94F6038DAB9EABDD
:10097000C752DF4F4881C95DD040C652DF4F588112
:10098000CA5DD04061EF71E080E090E00E94160601
:100990000E94E8058FAB98AF7E01F9E3EF0EF11CE2
:1009A0000F900F900F900F90812C912CC352DF4F1E
:1009B0000883CD5DD040C252DF4F1883CE5DD0405A
:1009C0008FA998AD881699063CF1C552DF4F488132
:1009D000CB5DD040C452DF4F5881CC5DD0406EE437
:1009E00071E080E090E00E941606EFEFCE1ADE0A7A
:1009F00024EDC352DF4FE881CD5DD040C252DF4FBE
:100A0000F881CE5DD040D50101900D922A95E1F795
:100A1000F4EDAF0EB11C4DCFC752DF4F4881C95D19
:100A2000D040C652DF4F5881CA5DD04061EF71E0BF
:100A300080E090E00E941606BC01C7010E940F06EC
:100A4000C752DF4F4881C95DD040C652DF4F588141
:100A5000CA5DD04061EF71E080E090E00E94160630
:100A60000E94D303F70182AB93ABFFEF8F1A9F0A6B
:100A700024E3E20EF11CA4CF0E94740186E191E010
:100A80000E945B068AE290E00E94DF058AE092E025
:100A90000E94F402C8E2D1E08AE092E00E941303CF
:100AA0009F938F93DF93CF930E9445069FEF27EA92
:100AB00081E6915020408040E1F700C000000F9097
:100AC0000F900F900F90E8CF97FB072E16F400942D
:100AD00007D077FD09D00E94780507FC05D03EF4C9
:100AE000909581959F4F0895709561957F4F0895DA
:100AF000AA1BBB1B51E107C0AA1FBB1FA617B70744
:100B000010F0A61BB70B881F991F5A95A9F780955F
:100B10009095BC01CD010895AAE0B0E0E2E9F5E0CE
:100B20000C94900989879A87FC0160817181828188
:100B3000938100977040604021F464E279ED8BE589
:100B400097E02DE133EF41E050E00E944E09298308
:100B50003A834B835C839B01AC01A7EAB1E40E941A
:100B60006D096D837E838F839887ACEEB4EF298106
:100B70003A814B815C810E947B092D813E814F81AE
:100B80005885260F371F481F591FC901DA01B7FFC3
:100B900003C00197A109B048E985FA858083918354
:100BA000A283B3839F772A96E2E00C94AC090E945B
:100BB0008C0508958EE091E00E948C050895809345
:100BC0000E0190930F0110921001109211010895DF
:100BD000FC0188279927E89421912032E9F32930F4
:100BE00010F02E30C8F32B3241F02D3239F46894D6
:100BF00004C00E943D06820F911D219120532A308E
:100C0000C0F31EF4909581959F4F0895FB01DC0180
:100C10008D91019080190110D9F3990B0895FB0172
:100C2000DC0101900D920020E1F70895FA01A191F5
:100C3000B081009719F41097E1F0CD01DC01CD01EE
:100C40000D90002011F4C00113C0FB01219122235B
:100C500019F02015D9F7F3CFFB012191201519F4D4
:100C60001E92119606C02223C1F70D900020A1F715
:100C7000D001FA01A193B08308957AE0979F902D57
:100C8000879F802D910D11240895A0E0B0E0EBE442
:100C9000F6E00C949009AE014B5F5F4FFA01619151
:100CA0007191AF0180914806909149060E94B40667
:100CB000E2E00C94AC090F931F93CF93DF93E09184
:100CC0004806F09149062381EC0100E010E021FD87
:100CD0000EC00FEF1FEFC801DF91CF911F910F9151
:100CE000089521960995892B11F00FEF1FEF888148
:100CF0006091480670914906DB011896ED91FD91CF
:100D00008111EFCF8AE00995892B29F3E2CFAEE07C
:100D1000B0E0EDE8F6E00C948E098C01CA0146E0E3
:100D20004C8309831A83FB016130704810F0E0E0C6
:100D3000F0E83197ED83FE83A901BC01CE01019655
:100D40000E94B4064D815E8157FD0AC02F8138850F
:100D5000421753070CF49A01020F131FF801108277
:100D60002E96E4E00C94AA09ACE0B0E0EAEBF6E0E1
:100D70000C9483095C016B017A01FC0116821782D5
:100D8000838181FFD3C12AE0522EF5012381F60130
:100D900023FD859123FF81916F01811509F42CC1F9
:100DA000853239F423FD959123FF91916F0195329E
:100DB00029F4B50190E00E94AF08E7CF30E0712C34
:100DC00000E010E0103210F59B32C9F050F4903280
:100DD000B9F09332C9F09E3261F516FD0DC1106471
:100DE00005C09D3279F0903399F41160F60123FD2E
:100DF000959123FF91916F019111E4CF23C012606F
:100E00001460F4CF1860F2CF1061F0CF17FD1AC054
:100E100080ED890F8A30F8F616FF05C0759C800DAD
:100E20001124782EE3CF059D800D1124082F106228
:100E3000DDCF9C3611F41068D9CF9C3409F440C042
:100E40009836A1F2892F8F7D85548330D8F193365F
:100E500009F45FC0933709F46AC0933509F476C08A
:100E6000943619F0993609F0A2C0F70117FF98C01F
:100E700061917191819191917F011F7697FF03C0DC
:100E80000E94650910682AE030E04E014FEF841A95
:100E9000940AA4010E94F008682E681816FFD2C0B8
:100EA000812F8E7F671408F0CCC014FF1DC112FD86
:100EB00011C11E7E972C812F867809F4CEC00FC1F8
:100EC00031E094CF311509F1F8E0EF0EF11C8FE31A
:100ED000898391E0692E712C4E018FEF881A980A50
:100EE0001F7713FD04C06016710408F43FC061143D
:100EF000710409F042C0011509F447CFB50180E241
:100F000090E00E94AF080150F6CF44E0E40EF11CDF
:100F1000DECFF70180818983F2E0EF0EF11C81E0E2
:100F2000682E712C4E014FEF841A940AD9CFF70125
:100F3000819091907F01672D70E016FD02C06FEFE8
:100F40007FEFC4010E94A4083C01CACFF701819041
:100F500091907F01672D70E016FD02C06FEF7FEF6B
:100F6000C4010E9499083C011068BBCFB50180E222
:100F700090E00E94AF080150B6CFF40117FD8591B3
:100F800017FF81914F01B50190E00E94AF0881E009
:100F9000011101C080E0081BF1E06F1A7108A7CFB2
:100FA00061917191872F880F880B982F65CF9537A6
:100FB000C9F41F7E1C872AE030E0FC85F7FF3BC0A8
:100FC000F70161917191819191917F014E014FEFF4
:100FD000841A940AA4010E94F008682E68181C85DF
:100FE0001F775CCF812F897F8C87903799F058F4D9
:100FF0009835B9F09F36E1F0F501868197812C96FE
:10100000EFE00C949F099837B9F714FD06C020E172
:1010100030E0D3CF9C8590619C87EC85E460EC87C1
:10102000F6CF14FF02C016601C8720E132E0C5CF66
:1010300028E030E0C2CFF7016191719180E090E04B
:10104000C4CF182F962C14FF36CFFE01E60DF11DEC
:101050008081803309F041C0197E13FD0EC010FF5E
:101060004FC0762C901618F4700E7918902E802FA1
:101070008919091508F480E0980E901608F042C00E
:10108000091914FF41C0B50180E390E00E94AF0848
:1010900012FF09C088E590E011FD02C088E790E0EA
:1010A000B5010E94AF086714D0F14E018FEF881A86
:1010B000980A6A94FE013296E60DF11D3F01F30194
:1010C00082913F01B50190E00E94AF086814790455
:1010D000B1F711CF972C182FB8CF12FD02C09394FF
:1010E000BCCF93949394B9CF972C182FE4CEB5012D
:1010F00080E290E00E94AF0883948016C0F3B7CFDF
:10110000892CFBCF00E0BDCF812F867861F280E291
:1011100011FD8BE217FD8DE2B50190E0C2CFB50164
:1011200080E390E00E94AF087A94BDCF8FEF9FEFED
:1011300066CFFC010590615070400110D8F7809592
:1011400090958E0F9F1F0895FC0161507040019093
:101150000110D8F7809590958E0F9F1F0895A3E0FA
:10116000B0E0E5EBF8E00C948F09182F99836A83BF
:101170007B83DB0113968C9181FD09C01FEFBFEFCC
:10118000B983812F99812396E3E00C94AB0982FF08
:101190001BC0EA81FB8126813781848195812817D4
:1011A000390754F40190F081E02DCF010196AA8116
:1011B000BB818D939D931083EA81FB81868197810A
:1011C000019686839783DDCFAA81BB811896ED9126
:1011D000FD911A97BD01812F0995892B69F3CECF17
:1011E000FA01AA27283051F1203181F1E8946F9358
:1011F0006E7F6E5F7F4F8F4F9F4FAF4FB1E03ED0FE
:10120000B4E03CD0670F781F891F9A1FA11D680F9B
:10121000791F8A1F911DA11D6A0F711D811D911DCE
:10122000A11D20D009F468943F912AE0269F112443
:101230003019305D3193DEF6CF010895462F4770A7
:10124000405D4193B3E00FD0C9F7F6CF462F4F7002
:10125000405D4A3318F0495D31FD4052419302D060
:10126000A9F7EACFB4E0A695979587957795679506
:10127000BA95C9F700976105710508959B01AC0106
:101280000A2E06945795479537952795BA95C9F72D
:10129000620F731F841F951FA01D0895052E97FBD5
:1012A0001EF400940E94650957FD07D00E94C609EC
:1012B00007FC03D04EF40C94650950954095309589
:1012C00021953F4F4F4F5F4F0895909580957095B2
:1012D00061957F4F8F4F9F4F08950E94B709A59F3B
:1012E000900DB49F900DA49F800D911D1124089521
:1012F000B7FF0C946D090E946D09821B930B089532
:101300002F923F924F925F926F927F928F929F9215
:10131000AF92BF92CF92DF92EF92FF920F931F9303
:10132000CF93DF93CDB7DEB7CA1BDB0B0FB6F894B4
:10133000DEBF0FBECDBF09942A88398848885F84F4
:101340006E847D848C849B84AA84B984C884DF8065
:10135000EE80FD800C811B81AA81B981CE0FD11D49
:101360000FB6F894DEBF0FBECDBFED010895A29F6A
:10137000B001B39FC001A39F700D811D1124911D69
:10138000B29F700D811D1124911D0895A1E21A2EA6
:10139000AA1BBB1BFD010DC0AA1FBB1FEE1FFF1F19
:1013A000A217B307E407F50720F0A21BB30BE40B69
:1013B000F50B661F771F881F991F1A9469F76095B0
:1013C0007095809590959B01AC01BD01CF0108956A
:0413D000F894FFCFBF
:1013D40000000002000000005F01000000000100A6
:1013E40000000040145448656C6C6F2042696C6CBA
:1013F400626F61726473210062696C6C626F617206
:10140400643A2025730A0A00436C69656E7420638C
:101414006F6E666967206C6F616465642E0A0A00EA
:1014240072616E646F6D5F6E756D3A2025642C2059
:10143400707265765F636C69656E743A2025730A11
:101444000063756D756C61746976655F707269634C
:10145400653A202564203E202564202D2D204D4111
:10146400544348210A0063756D756C61746976652F
:101474005F70726963653A202564203C2025640A04
:10148400006E6578745F636C69656E743A202573C9
:101494000A006669786564007363726F6C6C00623D
:1014A4006C696E6B006F6E655F72616E646F6D0068
:1014B4006F6E655F6576656E5F6F64645F6D696EA0
:1014C400002C00436C69656E743A202573202D2D21
:0A14D400204C4F41444544210A001A
:00000001FF
