:100000000C9434000C9451000C9451000C94510049
:100010000C9451000C9451000C9451000C9451001C
:100020000C9451000C9451000C9451000C9451000C
:100030000C9451000C9451000C9451000C945100FC
:100040000C9451000C9451000C9451000C945100EC
:100050000C9451000C9451000C9451000C945100DC
:100060000C9451000C94510011241FBECFEFD8E026
:10007000DEBFCDBF14E0A0E0B1E0E6EFF1E102C0E9
:1000800005900D92A232B107D9F724E0A2E2B4E0C4
:1000900001C01D92AA33B207E1F70E9430040C940C
:1000A000F9080C9400009091C00095FFFCCF80935C
:1000B000C60080E090E008951092C50087E6809326
:1000C000C40088E08093C10086E08093C200089558
:1000D0000E945C0080E091E08093360490933704A6
:1000E00008959BB19F708295807F892B8BB9599819
:1000F000599A59988FEA94E00197F1F700C00000EF
:100100000895CF93DF930F92CDB7DEB78983611542
:1001100061F0589A898182958F700E94710089815F
:100120000F90DF91CF910C9471005898F3CF60E05D
:100130000C94810061E00C9481008AB1836F8AB9CC
:100140008BB18C7F8BB92FEF80E792E021508040FC
:100150009040E1F700C0000083E00E9471008FE052
:1001600090E40197F1F700C0000083E00E94710065
:100170008FE090E40197F1F700C0000083E00E9457
:1001800071008FE090E40197F1F700C0000082E079
:100190000E9471008FE090E40197F1F700C0000029
:1001A00088E20E9497008FE090E40197F1F700C089
:1001B000000084E0809333048CE00C9497008091DD
:1001C0003304982F9460909333048C600C949700C0
:1001D000809133048B7F8093330488600C94970064
:1001E00081E00E9497008FE39FE10197F1F700C043
:1001F0000000089582E00E9497008FE39FE101973D
:10020000F1F700C00000089580913304982F9160A9
:100210009093330489600C949700809133048E7F0F
:100220008093330488600C94970080913304982F56
:100230009260909333048A600C9497008091330409
:100240008D7F8093330488600C94970088E10C9430
:1002500097008CE10C94970080913304982F926062
:100260009093330486600C949700809133048D7FC3
:100270008093330484600C94970080913304982F0A
:1002800091609093330485600C94970080913304BF
:100290008E7F8093330484600C9497000F931F9398
:1002A000CF93DF93880F880F880F88738064EB01EA
:1002B0000E9497008E01085F1F4F89910E949A004B
:1002C000C017D107D1F780E8DF91CF911F910F912F
:1002D0000C949700E62FF0E0E65DFC4F9081890FCB
:1002E00080680C949700FC01DC012C91211102C064
:1002F00010820895233C61F4DC0111963C91343A5C
:10030000A1F040F43538A1F03639C1F0343899F015
:10031000019609C0353A29F0363BD1F7029626EF0F
:1003200002C0029625EE2193DFCF029624EEFBCF8A
:10033000029625ECF8CF029624ECF5CF029626ED36
:10034000F2CFCF93DF9300D000D0CDB7DEB7898353
:100350009A830E94730129812B833A813C83EB812C
:10036000FC818081811107C00F900F900F900F903A
:10037000DF91CF910895EB81FC813196EB83FC8373
:100380000E949A00ECCFEF92FF920F931F93CF93AE
:10039000DF93CDB7DEB78E01075F1F4FF801E19005
:1003A000F1908F01C7010E9473019801A70161E1DB
:1003B00070E082E294E00E94980582E294E00E945C
:1003C000A101DF91CF911F910F91FF90EF900895C0
:1003D000CF93DF93EC010E94080380E593E00E9435
:1003E0006C05FE01EC5DFB4FDE01AA5DBB4F8D91FC
:1003F0009D91019744ED489F9001499F300D112434
:10040000C20FD31FC083D183DF91CF9108954F9244
:100410005F926F927F928F929F92AF92BF92CF9294
:10042000DF92EF92FF920F931F93CF93DF933C01E4
:100430002CED621A2BEF720AF301A080B1802C011F
:10044000FAED4F1AFBEF5F0AF201208131818C0136
:10045000FC0180E090E0EC01821793073CF1F5018C
:1004600082A993A9C81BD90B0E94EB04BE010E946C
:1004700075046C01BF92AF92DF928F9388E693E090
:100480009F938F930E9456050F900F900F900F909F
:100490000F900F90812C912C7401F2018081918139
:1004A000881699065CF0C0E0D0E027C042A953A9A5
:1004B000C40FD51F0196EC52FF4FCECFE801A01616
:1004C000B10609F44DC08AA99BA9E80EF91ECE1405
:1004D000DF04B4F5DF92CF92FF92EF9289E893E0C8
:1004E0009F938F930E945605F3010083D1830F9051
:1004F0000F900F900F900F900F90DF93CF9389EC98
:1005000093E09F938F930E9456050F900F900F904A
:100510000F908CA99DA9019749F5CE01C896DF914E
:10052000CF911F910F91FF90EF90DF90CF90BF90F0
:10053000AF909F908F907F906F905F904F900895B5
:10054000DF92CF92FF92EF928EEA93E09F938F9388
:100550000E9456050F900F900F900F900F900F90E4
:10056000FFEF8F1A9F0A0C521F4F97CF0E94EB0488
:100570006EA97FA90E94750444E3489F9001499F9A
:10058000300D1124C901C8968C0F9D1FC8CFCF9381
:10059000DF93EC016AED73E00E9417050097A1F06C
:1005A00060EE73E0CE010E941705892B81F067EEA3
:1005B00073E0CE010E94170521E030E0892B09F09D
:1005C00020E0C901880F991FDF91CF91089581E044
:1005D00090E0FACFCF93DF9300D0CDB7DEB7898319
:1005E0009A836DEE73E00E941705009761F068EF43
:1005F00073E089819A810E94170521E0892B09F017
:1006000020E0822F90E00F900F90DF91CF9108951E
:100610006F927F928F929F92AF92BF92CF92DF9212
:10062000EF92FF920F931F93CF93DF93CDB7DEB777
:10063000CE5DD1090FB6F894DEBF0FBECDBF3C0131
:100640007E0127EDE20EF11CF701108211828E016E
:100650000B521F4FF80110821182A70166E673E06A
:100660008EE091E00E9427055301C12CD12CC55288
:10067000DF4FE882CB5DD040C452DF4FF882CC5DC3
:10068000D040C752DF4F0883C95DD040C652DF4F0C
:100690001883CA5DD040045D11090097D9F4F301B5
:1006A000EA5DFB4FC082D182C252DF4F0FB6F89491
:1006B000DEBF0FBECDBFDF91CF911F910F91FF9095
:1006C000EF90DF90CF90BF90AF909F908F907F90F2
:1006D0006F900895C752DF4F4881C95DD040C65220
:1006E000DF4F5881CA5DD04069E074E00E94270561
:1006F000BC01C8010E9420051F930F938BE094E07A
:100700009F938F930E945605C752DF4F4881C95D62
:10071000D040C652DF4F5881CA5DD04069E074E0D6
:1007200080E090E00E9427050E94F9048BAB9CAB0F
:10073000C752DF4F4881C95DD040C652DF4F588154
:10074000CA5DD04069E074E080E090E00E94270537
:100750000E94EA028DAB9EABC752DF4F4881C95D54
:10076000D040C652DF4F5881CA5DD04069E074E086
:1007700080E090E00E9427050E94F9048FAB98AFBB
:100780007E01F9E3EF0EF11C0F900F900F900F9088
:10079000812C912CC352DF4F0883CD5DD040C252D3
:1007A000DF4F1883CE5DD0408FA998AD881699068B
:1007B0003CF1C552DF4F4881CB5DD040C452DF4F82
:1007C0005881CC5DD04066E673E080E090E00E9406
:1007D0002705EFEFCE1ADE0A24EDC352DF4FE88182
:1007E000CD5DD040C252DF4FF881CE5DD040D50103
:1007F00001900D922A95E1F7F4EDAF0EB11C4DCFAB
:10080000C752DF4F4881C95DD040C652DF4F588183
:10081000CA5DD04069E074E080E090E00E94270566
:10082000BC01C7010E942005C752DF4F4881C95D46
:10083000D040C652DF4F5881CA5DD04069E074E0B5
:1008400080E090E00E9427050E94C702F70182AB7A
:1008500093ABFFEF8F1A9F0A24E3E20EF11CA4CFA3
:10086000CDB7DEB7CC52D4400FB6F894DEBF0FBE82
:10087000CDBF0E9468008EE293E00E946C058AE280
:1008800090E00E94F0048E010F5F1F4FC8010E948C
:10089000E801C55DDB4F0883CB52D440C45DDB4F1C
:1008A0001883CC52D44000E413E0C55DDB4F88814F
:1008B000CB52D440C45DDB4F9881CC52D4400E94CF
:1008C00007029F938F931F930F930E9456052FEF5C
:1008D00087EA91E6215080409040E1F700C0000097
:1008E0000F900F900F900F90E0CF97FB072E16F40C
:1008F000009407D077FD09D00E94890407FC05D039
:100900003EF4909581959F4F0895709561957F4F26
:100910000895AA1BBB1B51E107C0AA1FBB1FA61746
:10092000B70710F0A61BB70B881F991F5A95A9F798
:1009300080959095BC01CD010895AAE0B0E0E3EA6E
:10094000F4E00C94A10889879A87FC016081718189
:100950008281938100977040604021F464E279EDD8
:100960008BE597E02DE133EF41E050E00E945F0816
:1009700029833A834B835C839B01AC01A7EAB1E4F2
:100980000E947E086D837E838F839887ACEEB4EFE0
:1009900029813A814B815C810E948C082D813E81A6
:1009A0004F815885260F371F481F591FC901DA018B
:1009B000B7FF03C00197A109B048E985FA85808394
:1009C0009183A283B3839F772A96E2E00C94BD08BB
:1009D0000E949D04089586E293E00E949D0408957C
:1009E00080932603909327031092280310922903E3
:1009F0000895FC0188279927E89421912032E9F392
:100A0000293010F02E30C8F32B3241F02D3239F45A
:100A1000689404C00E944E05820F911D21912053BD
:100A20002A30C0F31EF4909581959F4F0895FB01E5
:100A3000DC018D91019080190110D9F3990B089573
:100A4000FB01DC0101900D920020E1F70895FA010D
:100A5000A191B081009719F41097E1F0CD01DC016C
:100A6000CD010D90002011F4C00113C0FB012191B4
:100A7000222319F02015D9F7F3CFFB01219120157E
:100A800019F41E92119606C02223C1F70D90002082
:100A9000A1F7D001FA01A193B08308957AE0979F5E
:100AA000902D879F802D910D11240895A0E0B0E036
:100AB000ECE5F5E00C94A108AE014B5F5F4FFA0145
:100AC00061917191AF0180913604909137040E9439
:100AD000C505E2E00C94BD080F931F93CF93DF93FD
:100AE000E0913604F09137042381EC0100E010E03E
:100AF00021FD0EC00FEF1FEFC801DF91CF911F91B5
:100B00000F91089521960995892B11F00FEF1FEF92
:100B100088816091360470913704DB011896ED915D
:100B2000FD918111EFCF8AE00995892B29F3E2CF5E
:100B3000AEE0B0E0EEE9F5E00C949F088C01CA014C
:100B400046E04C8309831A83FB016130704810F042
:100B5000E0E0F0E83197ED83FE83A901BC01CE010E
:100B600001960E94C5054D815E8157FD0AC02F8107
:100B70003885421753070CF49A01020F131FF8012E
:100B800010822E96E4E00C94BB08ACE0B0E0EBECF5
:100B9000F5E00C9494085C016B017A01FC0116826B
:100BA0001782838181FFD3C12AE0522EF501238170
:100BB000F60123FD859123FF81916F01811509F4D1
:100BC0002CC1853239F423FD959123FF91916F015A
:100BD000953229F4B50190E00E94C007E7CF30E0DC
:100BE000712C00E010E0103210F59B32C9F050F487
:100BF0009032B9F09332C9F09E3261F516FD0DC105
:100C0000106405C09D3279F0903399F41160F601BB
:100C100023FD959123FF91916F019111E4CF23C0A2
:100C200012601460F4CF1860F2CF1061F0CF17FD9E
:100C30001AC080ED890F8A30F8F616FF05C0759C42
:100C4000800D1124782EE3CF059D800D1124082FEF
:100C50001062DDCF9C3611F41068D9CF9C3409F4B2
:100C600040C09836A1F2892F8F7D85548330D8F10A
:100C7000933609F45FC0933709F46AC0933509F4D9
:100C800076C0943619F0993609F0A2C0F70117FF23
:100C900098C061917191819191917F011F7697FF29
:100CA00003C00E94760810682AE030E04E014FEF42
:100CB000841A940AA4010E940108682E681816FF7D
:100CC000D2C0812F8E7F671408F0CCC014FF1DC1E5
:100CD00012FD11C11E7E972C812F867809F4CEC09B
:100CE0000FC131E094CF311509F1F8E0EF0EF11C9E
:100CF0008FE3898391E0692E712C4E018FEF881A62
:100D0000980A1F7713FD04C06016710408F43FC0F1
:100D10006114710409F042C0011509F447CFB5010F
:100D200080E290E00E94C0070150F6CF44E0E40E5C
:100D3000F11CDECFF70180818983F2E0EF0EF11C18
:100D400081E0682E712C4E014FEF841A940AD9CF9E
:100D5000F701819091907F01672D70E016FD02C030
:100D60006FEF7FEFC4010E94B5073C01CACFF701C6
:100D7000819091907F01672D70E016FD02C06FEFAA
:100D80007FEFC4010E94AA073C011068BBCFB501E8
:100D900080E290E00E94C0070150B6CFF40117FD39
:100DA000859117FF81914F01B50190E00E94C00726
:100DB00081E0011101C080E0081BF1E06F1A7108A9
:100DC000A7CF61917191872F880F880B982F65CFDE
:100DD0009537C9F41F7E1C872AE030E0FC85F7FFB9
:100DE0003BC0F70161917191819191917F014E0119
:100DF0004FEF841A940AA4010E940108682E681813
:100E00001C851F775CCF812F897F8C87903799F065
:100E100058F49835B9F09F36E1F0F5018681978155
:100E20002C96EFE00C94B0089837B9F714FD06C083
:100E300020E130E0D3CF9C8590619C87EC85E46015
:100E4000EC87F6CF14FF02C016601C8720E132E069
:100E5000C5CF28E030E0C2CFF7016191719180E009
:100E600090E0C4CF182F962C14FF36CFFE01E60D6C
:100E7000F11D8081803309F041C0197E13FD0EC041
:100E800010FF4FC0762C901618F4700E7918902E23
:100E9000802F8919091508F480E0980E901608F043
:100EA00042C0091914FF41C0B50180E390E00E94DF
:100EB000C00712FF09C088E590E011FD02C088E775
:100EC00090E0B5010E94C0076714D0F14E018FEF8A
:100ED000881A980A6A94FE013296E60DF11D3F01C8
:100EE000F30182913F01B50190E00E94C0076814B0
:100EF0007904B1F711CF972C182FB8CF12FD02C08B
:100F00009394BCCF93949394B9CF972C182FE4CE9D
:100F1000B50180E290E00E94C00783948016C0F380
:100F2000B7CF892CFBCF00E0BDCF812F867861F24F
:100F300080E211FD8BE217FD8DE2B50190E0C2CF9A
:100F4000B50180E390E00E94C0077A94BDCF8FEF97
:100F50009FEF66CFFC010590615070400110D8F7FB
:100F6000809590958E0F9F1F0895FC0161507040F1
:100F700001900110D8F7809590958E0F9F1F0895CE
:100F8000A3E0B0E0E6ECF7E00C94A008182F9983FA
:100F90006A837B83DB0113968C9181FD09C01FEF6F
:100FA000BFEFB983812F99812396E3E00C94BC08AD
:100FB00082FF1BC0EA81FB81268137818481958174
:100FC0002817390754F40190F081E02DCF010196E4
:100FD000AA81BB818D939D931083EA81FB818681D9
:100FE0009781019686839783DDCFAA81BB8118966E
:100FF000ED91FD911A97BD01812F0995892B69F318
:10100000CECFFA01AA27283051F1203181F1E8949E
:101010006F936E7F6E5F7F4F8F4F9F4FAF4FB1E0EB
:101020003ED0B4E03CD0670F781F891F9A1FA11DE6
:10103000680F791F8A1F911DA11D6A0F711D811DE7
:10104000911DA11D20D009F468943F912AE0269FAC
:1010500011243019305D3193DEF6CF010895462F0B
:101060004770405D4193B3E00FD0C9F7F6CF462FEC
:101070004F70405D4A3318F0495D31FD4052419355
:1010800002D0A9F7EACFB4E0A69597958795779512
:101090006795BA95C9F700976105710508959B0199
:1010A000AC010A2E06945795479537952795BA9522
:1010B000C9F7620F731F841F951FA01D0895052E89
:1010C00097FB1EF400940E94760857FD07D00E94FB
:1010D000D70807FC03D04EF40C9476085095409541
:1010E000309521953F4F4F4F5F4F089590958095D4
:1010F000709561957F4F8F4F9F4F08950E94C8084C
:10110000A59F900DB49F900DA49F800D911D11245B
:101110000895B7FF0C947E080E947E08821B930BF3
:1011200008952F923F924F925F926F927F928F928B
:101130009F92AF92BF92CF92DF92EF92FF920F9366
:101140001F93CF93DF93CDB7DEB7CA1BDB0B0FB670
:10115000F894DEBF0FBECDBF09942A88398848882D
:101160005F846E847D848C849B84AA84B984C884C3
:10117000DF80EE80FD800C811B81AA81B981CE0FBA
:10118000D11D0FB6F894DEBF0FBECDBFED0108959F
:10119000A29FB001B39FC001A39F700D811D1124B8
:1011A000911DB29F700D811D1124911D0895A1E222
:1011B0001A2EAA1BBB1BFD010DC0AA1FBB1FEE1FD1
:1011C000FF1FA217B307E407F50720F0A21BB30B1C
:1011D000E40BF50B661F771F881F991F1A9469F798
:1011E00060957095809590959B01AC01BD01CF01F4
:0611F0000895F894FFCF02
:1011F60000000002000000005300000000004865E7
:101206006465726C69676520486172727973204201
:10121600696C61722C353030302C6F6E655F72618F
:101226006E646F6D2C332C4BC3B6702062696C20D4
:10123600686F732048617272792C7363726F6C6C7D
:101246002C456E20676F642062696C616666C3A474
:1012560072202866C3B67220486172727921292CE1
:1012660066697865642C48656465726C6967652093
:101276004861727279732042696C61722C626C6982
:101286006E6B0A4661726D6F7220416E6B617320E0
:1012960050616A65722041422C333030302C6F6EBB
:1012A600655F72616E646F6D2C322C4BC3B6702015
:1012B60070616A20686F73204661726D6F7220419B
:1012C6006E6B612C7363726F6C6C2C536B796E64EE
:1012D6006120696E6E616E204DC3A57274656E20C5
:1012E600C3A474697420616C6C612070616A657254
:1012F6002C66697865640A53766172746520506558
:101306007474657273205376617274627967676567
:101316006E2C313530302C6F6E655F6576656E5F8D
:101326006F64645F6D696E2C322C4CC3A5742050BB
:10133600657474657220627967676120C3A574203D
:101346006469672C7363726F6C6C2C427967676192
:101356002073766172743F2052696E6720506574FF
:101366007465722C7363726F6C6C0A4CC3A56E67DE
:1013760062656E7320446574656B74697662797212
:10138600C3A52C343030302C6F6E655F72616E648D
:101396006F6D2C322C4D79737465726965723F20BE
:1013A60052696E67204CC3A56E6762656E2C6669CE
:1013B6007865642C4CC3A56E6762656E2066697895
:1013C60061722062696666656E2C66697865640A74
:1013D60053656C662070726F6D6F74696F6E2C3119
:1013E6003030302C6F6E655F72616E646F6D2C31BC
:1013F6002C53796E61732068C3A4723F20494F5401
:101406003A732052656B6C616D627972C3A52C6666
:10141600697865640A0001000000004014544865BC
:101426006C6C6F2042696C6C626F61726473210030
:1014360062696C6C626F6172643A2025730A0A00F5
:10144600436C69656E7420636F6E666967206C6FA6
:10145600616465642E0A0A0072616E646F6D5F6E68
:10146600756D3A2025642C20707265765F636C6911
:10147600656E743A2025730A0063756D756C617428
:101486006976655F70726963653A202564203E203F
:101496002564202D2D204D41544348210A006375B3
:1014A6006D756C61746976655F70726963653A2003
:1014B6002564203C2025640A006E6578745F636CA1
:1014C60069656E743A2025730A006669786564005A
:1014D6007363726F6C6C00626C696E6B006F6E6525
:1014E6005F72616E646F6D006F6E655F6576656EC7
:1014F6005F6F64645F6D696E002C00436C69656E96
:10150600743A202573202D2D204C4F41444544210B
:021516000A00C9
:00000001FF
