:100000000C9434000C9449000C9449000C94490061
:100010000C9449000C9449000C9449000C9449003C
:100020000C9449000C9449000C9449000C9449002C
:100030000C9449000C9449000C9449000C9449001C
:100040000C9449000C9449000C9449000C9449000C
:100050000C9449000C9449000C9449000C944900FC
:100060000C9449000C94490011241FBECFEFD8E036
:10007000DEBFCDBF11E0A0E0B1E0E0EEF0E002C0F5
:1000800005900D92AA30B107D9F70E944B000C944D
:100090006E000C940000E1E0F1E041E050E08AB134
:1000A0002191BA0101C0660F2A95EAF7862B8AB919
:1000B00071E0E930F70799F7809100018BB98091E1
:1000C0000001880F809300018FEF95EA2EE08150A8
:1000D00090402040E1F700C00000EECFF894FFCF41
:0A00E00001000102030405060700F9
:00000001FF
